S011000053696D6F6E536179732E737265636D
S113000045C0000060C000005EC000005CC000008D
S11300105AC0000058C0000056C0000054C0000080
S113002052C0000050C000004EC000004CC0000090
S11300304AC0000048C0000046C0000044C00000A0
S113004042C0000040C000003EC000003CC00000B0
S11300503AC0000038C0000036C0000034C00000C0
S113006032C0000030C000002EC000002CC00000D0
S11300702AC0000028C0000026C0000024C00000E0
S113008022C0000020C000001EC0000011241FBEBA
S1130090CFEFD0E1DEBFCDBF11E0A0E0B1E0E4E4FA
S11300A0F7E000E00BBF02C007900D92AC30B1073F
S11300B0D9F721E0ACE0B1E001C01D92A031B20754
S11300C0E1F7D0D03DC39CCF20E030E008C0EFEC96
S11300D0F7E03197F1F700C000002F5F3F4F28177A
S11300E03907ACF30895EF92FF920F931F93CF93C8
S11300F0DF937C01C0E0D0E00FC087010C0F1D1F0F
S1130100B4D283709078992324F401978C6F9F6FF5
S11301100196F8018083219680910A0190910B0148
S1130120C817D90754F3DF91CF911F910F91FF9016
S1130130EF900895EF92FF920F931F93CF93DF9365
S11301407C0140E06FEF80E000D1C0E0D0E010C05F
S113015087010C0F1D1FF801808103D184EF91E00A
S1130160B3DFF801808109D184EF91E0ADDF2196FE
S113017080910A0190910B01C817D9074CF3DF91C4
S1130180CF911F910F91FF90EF900895FC0191E0A2
S113019060E040E050E040C0CC9B0BC0992349F0A4
S11301A0DF01A40FB51F1C924F5F5F4F90E064E026
S11301B029C0CD9B0CC0992351F0DF01A40FB51FBA
S11301C081E08C934F5F5F4F90E065E01BC0CE9B56
S11301D00CC0992351F0DF01A40FB51F82E08C936A
S11301E04F5F5F4F90E066E00DC0CF9B0BC099233B
S11301F049F0DF01A40FB51F83E08C934F5F5F4F7D
S113020090E067E029B330E0062E02C035952795CB
S11302100A94E2F720FF91E020910A0130910B014A
S1130220421753070CF4B8CF0895DC0120E030E006
S11302300CC0FD01E20FF31F4081FB01E20FF31F2D
S1130240908149130CC02F5F3F4F40910A01509198
S11302500B01241735076CF381E090E0089580E0EA
S113026090E0089560D08AE090E097D0EC018AE0B5
S113027090E093D08C014FEF60E080E066D088D0AE
S113028080ED97E021DF86D080ED97E01DDFCE0181
S11302902ADFCE014FDFC80179DFB801CE01C5DF07
S11302A0892B71F180910A0190910B010196909331
S11302B00B0180930A014FEF60E080E046D068D0E4
S11302C080ED97E001DF66D080ED97E0FDDE809160
S11302D00A0190910B010B97D4F244E664E684E69C
S11302E034D056D080ED97E0EFDE54D080ED97E027
S11302F0EBDE81E090E090930B0180930A01C7CF7D
S113030081E090E090930B0180930A0140E060E06B
S11303108FEF1BD03DD080ED97E0D6DE3BD080ED53
S113032097E0D2DEB4CF1BBC1ABC19BC18BC109227
S113033079001092780089EA8FBD8BE08EBD8FEF33
S113034087BB8FE08ABB8BBB089590E09BBD8ABDC1
S113035070E079BD68BD50E0509379004093780017
S113036008959BB321E030E002C0220F331F8A9529
S1130370E2F7209529232BBB08959BB321E030E0BD
S113038002C0220F331F8A95E2F7292B2BBB089555
S11303901BBA08958FE08BBB08950F931F93CF93DF
S11303A0DF938230910510F482E090E0E0910E0139
S11303B0F0910F0120E030E0A0E0B0E0309719F1B7
S11303C0408151810281138148175907C8F084176D
S11303D0950769F4109731F012960C9312971396BF
S11303E01C9327C000930E0110930F0122C0211506
S11303F0310519F04217530718F49A01BD01EF01B2
S1130400DF01F801DBCF21153105F9F0281B390B89
S11304102430310580F48A819B816115710521F0B6
S1130420FB019383828304C090930F0180930E0198
S1130430FE01329644C0FE01E20FF31F81939193B3
S113044022503109398328833AC020910C0130911C
S11304500D01232B41F420910201309103013093CB
S11304600D0120930C01209100013091010121150F
S1130470310541F42DB73EB7409104015091050177
S1130480241B350BE0910C01F0910D01E217F307E9
S1130490A0F42E1B3F0B2817390778F0AC014E5FF0
S11304A05F4F2417350748F04E0F5F1F50930D011F
S11304B040930C018193919302C0E0E0F0E0CF01FE
S11304C0DF91CF911F910F910895CF93DF93009700
S11304D009F481C0FC01329713821282A0910E01AB
S11304E0B0910F01109781F420813181820F931F05
S11304F020910C0130910D012817390751F5F09323
S11305000D01E0930C0167C0ED0120E030E0CE174F
S1130510DF0740F44A815B819E0141155105F1F0EA
S1130520EA01F5CFD383C28340815181840F951FA3
S1130530C817D90759F488819981840F951F0296A9
S1130540918380838A819B819383828321153105E2
S113055029F4F0930F01E0930E013DC0E901FB8300
S1130560EA8349915991C40FD51FEC17FD0761F433
S113057080819181840F951F0296E9019983888374
S1130580828193819B838A83E0E0F0E012968D91CF
S11305909C911397009719F0FD01DC01F7CF8D9121
S11305A09C9111979D012E5F3F4F820F931F2091C5
S11305B00C0130910D012817390769F4309729F49B
S11305C010920F0110920E0102C013821282B09396
S11305D00D01A0930C01DF91CF9108958F929F920A
S11305E0AF92BF92CF92DF92EF92FF92CF93DF93BD
S11305F0EC01688179818A819B816115710581058E
S1130600910521F464E279ED8BE597E02DE133EF78
S113061041E050E038D049015A019B01AC01A7EAFE
S1130620B1E44DD06B017C01ACEEB4EFA5019401B3
S113063052D0DC01CB018C0D9D1DAE1DBF1DB7FF3B
S113064003C00197A109B04888839983AA83BB8317
S11306509F77DF91CF91FF90EF90DF90CF90BF9085
S1130660AF909F908F900895B9CF86E091E0B6CF78
S1130670A0E0B0E08093060190930701A0930801E5
S1130680B09309010895052E97FB16F400940FD03A
S113069057FD05D024D007FC02D046F408C050957D
S11306A04095309521953F4F4F4F5F4F089590955A
S11306B08095709561957F4F8F4F9F4F089531D0EE
S11306C0A59F900DB49F900DA49F800D911D1124A2
S11306D00895B7FFF4CFF3DF821B930B0895A1E2D3
S11306E01A2EAA1BBB1BFD010DC0AA1FBB1FEE1FA8
S11306F0FF1FA217B307E407F50720F0A21BB30BF3
S1130700E40BF50B661F771F881F991F1A9469F76E
S113071060957095809590959B01AC01BD01CF01CA
S11307200895A29FB001B39FC001A39F700D811DC6
S11307301124911DB29F700D811D1124911D0895E6
S1070740F894FFCF57
S10F074400001001200001000000010072
S9030000FC
